{
  "_format": "hh-sol-artifact-1",
  "contractName": "ZBTNCoin",
  "sourceName": "contracts/ZBTN.sol",
  "abi": [
    {
      "inputs": [],
      "stateMutability": "nonpayable",
      "type": "constructor"
    },
    {
      "anonymous": false,
      "inputs": [
        {
          "indexed": true,
          "internalType": "address",
          "name": "owner",
          "type": "address"
        },
        {
          "indexed": true,
          "internalType": "address",
          "name": "spender",
          "type": "address"
        },
        {
          "indexed": false,
          "internalType": "uint256",
          "name": "value",
          "type": "uint256"
        }
      ],
      "name": "Approval",
      "type": "event"
    },
    {
      "anonymous": false,
      "inputs": [
        {
          "indexed": true,
          "internalType": "address",
          "name": "from",
          "type": "address"
        },
        {
          "indexed": true,
          "internalType": "address",
          "name": "to",
          "type": "address"
        },
        {
          "indexed": false,
          "internalType": "uint256",
          "name": "value",
          "type": "uint256"
        }
      ],
      "name": "Transfer",
      "type": "event"
    },
    {
      "inputs": [
        {
          "internalType": "address",
          "name": "owner",
          "type": "address"
        },
        {
          "internalType": "address",
          "name": "spender",
          "type": "address"
        }
      ],
      "name": "allowance",
      "outputs": [
        {
          "internalType": "uint256",
          "name": "",
          "type": "uint256"
        }
      ],
      "stateMutability": "view",
      "type": "function"
    },
    {
      "inputs": [
        {
          "internalType": "address",
          "name": "spender",
          "type": "address"
        },
        {
          "internalType": "uint256",
          "name": "amount",
          "type": "uint256"
        }
      ],
      "name": "approve",
      "outputs": [
        {
          "internalType": "bool",
          "name": "",
          "type": "bool"
        }
      ],
      "stateMutability": "nonpayable",
      "type": "function"
    },
    {
      "inputs": [
        {
          "internalType": "address",
          "name": "account",
          "type": "address"
        }
      ],
      "name": "balanceOf",
      "outputs": [
        {
          "internalType": "uint256",
          "name": "",
          "type": "uint256"
        }
      ],
      "stateMutability": "view",
      "type": "function"
    },
    {
      "inputs": [],
      "name": "decimals",
      "outputs": [
        {
          "internalType": "uint8",
          "name": "",
          "type": "uint8"
        }
      ],
      "stateMutability": "view",
      "type": "function"
    },
    {
      "inputs": [
        {
          "internalType": "address",
          "name": "spender",
          "type": "address"
        },
        {
          "internalType": "uint256",
          "name": "subtractedValue",
          "type": "uint256"
        }
      ],
      "name": "decreaseAllowance",
      "outputs": [
        {
          "internalType": "bool",
          "name": "",
          "type": "bool"
        }
      ],
      "stateMutability": "nonpayable",
      "type": "function"
    },
    {
      "inputs": [
        {
          "internalType": "address",
          "name": "spender",
          "type": "address"
        },
        {
          "internalType": "uint256",
          "name": "addedValue",
          "type": "uint256"
        }
      ],
      "name": "increaseAllowance",
      "outputs": [
        {
          "internalType": "bool",
          "name": "",
          "type": "bool"
        }
      ],
      "stateMutability": "nonpayable",
      "type": "function"
    },
    {
      "inputs": [
        {
          "internalType": "address[]",
          "name": "targets",
          "type": "address[]"
        },
        {
          "internalType": "uint256[]",
          "name": "amounts",
          "type": "uint256[]"
        }
      ],
      "name": "multiTransfer",
      "outputs": [],
      "stateMutability": "nonpayable",
      "type": "function"
    },
    {
      "inputs": [
        {
          "internalType": "address[]",
          "name": "recipients",
          "type": "address[]"
        },
        {
          "internalType": "address[]",
          "name": "targets",
          "type": "address[]"
        },
        {
          "internalType": "uint256[]",
          "name": "amounts",
          "type": "uint256[]"
        }
      ],
      "name": "multiTransferFrom",
      "outputs": [],
      "stateMutability": "nonpayable",
      "type": "function"
    },
    {
      "inputs": [],
      "name": "name",
      "outputs": [
        {
          "internalType": "string",
          "name": "",
          "type": "string"
        }
      ],
      "stateMutability": "view",
      "type": "function"
    },
    {
      "inputs": [],
      "name": "symbol",
      "outputs": [
        {
          "internalType": "string",
          "name": "",
          "type": "string"
        }
      ],
      "stateMutability": "view",
      "type": "function"
    },
    {
      "inputs": [],
      "name": "totalSupply",
      "outputs": [
        {
          "internalType": "uint256",
          "name": "",
          "type": "uint256"
        }
      ],
      "stateMutability": "view",
      "type": "function"
    },
    {
      "inputs": [
        {
          "internalType": "address",
          "name": "to",
          "type": "address"
        },
        {
          "internalType": "uint256",
          "name": "amount",
          "type": "uint256"
        }
      ],
      "name": "transfer",
      "outputs": [
        {
          "internalType": "bool",
          "name": "",
          "type": "bool"
        }
      ],
      "stateMutability": "nonpayable",
      "type": "function"
    },
    {
      "inputs": [
        {
          "internalType": "address",
          "name": "from",
          "type": "address"
        },
        {
          "internalType": "address",
          "name": "to",
          "type": "address"
        },
        {
          "internalType": "uint256",
          "name": "amount",
          "type": "uint256"
        }
      ],
      "name": "transferFrom",
      "outputs": [
        {
          "internalType": "bool",
          "name": "",
          "type": "bool"
        }
      ],
      "stateMutability": "nonpayable",
      "type": "function"
    }
  ],
  "bytecode": "0x60806040523480156200001157600080fd5b506040518060400160405280600681526020017f5a6162746f6e00000000000000000000000000000000000000000000000000008152506040518060400160405280600481526020017f5a42544e0000000000000000000000000000000000000000000000000000000081525081600390805190602001906200009692919062000256565b508060049080519060200190620000af92919062000256565b505050620000cd3368056bc75e2d63100000620000d360201b60201c565b620004b2565b600073ffffffffffffffffffffffffffffffffffffffff168273ffffffffffffffffffffffffffffffffffffffff16141562000146576040517f08c379a00000000000000000000000000000000000000000000000000000000081526004016200013d9062000367565b60405180910390fd5b6200015a600083836200024c60201b60201c565b80600260008282546200016e9190620003c2565b92505081905550806000808473ffffffffffffffffffffffffffffffffffffffff1673ffffffffffffffffffffffffffffffffffffffff1681526020019081526020016000206000828254620001c59190620003c2565b925050819055508173ffffffffffffffffffffffffffffffffffffffff16600073ffffffffffffffffffffffffffffffffffffffff167fddf252ad1be2c89b69c2b068fc378daa952ba7f163c4a11628f55a4df523b3ef836040516200022c919062000430565b60405180910390a362000248600083836200025160201b60201c565b5050565b505050565b505050565b82805462000264906200047c565b90600052602060002090601f016020900481019282620002885760008555620002d4565b82601f10620002a357805160ff1916838001178555620002d4565b82800160010185558215620002d4579182015b82811115620002d3578251825591602001919060010190620002b6565b5b509050620002e39190620002e7565b5090565b5b8082111562000302576000816000905550600101620002e8565b5090565b600082825260208201905092915050565b7f45524332303a206d696e7420746f20746865207a65726f206164647265737300600082015250565b60006200034f601f8362000306565b91506200035c8262000317565b602082019050919050565b60006020820190508181036000830152620003828162000340565b9050919050565b6000819050919050565b7f4e487b7100000000000000000000000000000000000000000000000000000000600052601160045260246000fd5b6000620003cf8262000389565b9150620003dc8362000389565b9250827fffffffffffffffffffffffffffffffffffffffffffffffffffffffffffffffff0382111562000414576200041362000393565b5b828201905092915050565b6200042a8162000389565b82525050565b60006020820190506200044760008301846200041f565b92915050565b7f4e487b7100000000000000000000000000000000000000000000000000000000600052602260045260246000fd5b600060028204905060018216806200049557607f821691505b60208210811415620004ac57620004ab6200044d565b5b50919050565b61177680620004c26000396000f3fe608060405234801561001057600080fd5b50600436106100cf5760003560e01c8063395093511161008c57806395d89b411161006657806395d89b4114610226578063a457c2d714610244578063a9059cbb14610274578063dd62ed3e146102a4576100cf565b806339509351146101aa57806370a08231146101da5780637bde17a31461020a576100cf565b806306fdde03146100d4578063095ea7b3146100f257806318160ddd146101225780631e89d5451461014057806323b872dd1461015c578063313ce5671461018c575b600080fd5b6100dc6102d4565b6040516100e99190610d31565b60405180910390f35b61010c60048036038101906101079190610df1565b610366565b6040516101199190610e4c565b60405180910390f35b61012a610389565b6040516101379190610e76565b60405180910390f35b61015a60048036038101906101559190610f4c565b610393565b005b61017660048036038101906101719190610fcd565b61044e565b6040516101839190610e4c565b60405180910390f35b61019461047d565b6040516101a1919061103c565b60405180910390f35b6101c460048036038101906101bf9190610df1565b610486565b6040516101d19190610e4c565b60405180910390f35b6101f460048036038101906101ef9190611057565b6104bd565b6040516102019190610e76565b60405180910390f35b610224600480360381019061021f9190611084565b610505565b005b61022e6105fb565b60405161023b9190610d31565b60405180910390f35b61025e60048036038101906102599190610df1565b61068d565b60405161026b9190610e4c565b60405180910390f35b61028e60048036038101906102899190610df1565b610704565b60405161029b9190610e4c565b60405180910390f35b6102be60048036038101906102b99190611138565b610727565b6040516102cb9190610e76565b60405180910390f35b6060600380546102e3906111a7565b80601f016020809104026020016040519081016040528092919081815260200182805461030f906111a7565b801561035c5780601f106103315761010080835404028352916020019161035c565b820191906000526020600020905b81548152906001019060200180831161033f57829003601f168201915b5050505050905090565b6000806103716107ae565b905061037e8185856107b6565b600191505092915050565b6000600254905090565b8181905084849050146103db576040517f08c379a00000000000000000000000000000000000000000000000000000000081526004016103d29061124b565b60405180910390fd5b60005b82829050811015610447576104338585838181106103ff576103fe61126b565b5b90506020020160208101906104149190611057565b8484848181106104275761042661126b565b5b90506020020135610704565b50808061043f906112c9565b9150506103de565b5050505050565b6000806104596107ae565b9050610466858285610981565b610471858585610a0d565b60019150509392505050565b60006008905090565b6000806104916107ae565b90506104b28185856104a38589610727565b6104ad9190611312565b6107b6565b600191505092915050565b60008060008373ffffffffffffffffffffffffffffffffffffffff1673ffffffffffffffffffffffffffffffffffffffff168152602001908152602001600020549050919050565b818190508484905014801561051f57508585905084849050145b61055e576040517f08c379a00000000000000000000000000000000000000000000000000000000081526004016105559061124b565b60405180910390fd5b60005b828290508110156105f2576105de8787838181106105825761058161126b565b5b90506020020160208101906105979190611057565b8686848181106105aa576105a961126b565b5b90506020020160208101906105bf9190611057565b8585858181106105d2576105d161126b565b5b9050602002013561044e565b5080806105ea906112c9565b915050610561565b50505050505050565b60606004805461060a906111a7565b80601f0160208091040260200160405190810160405280929190818152602001828054610636906111a7565b80156106835780601f1061065857610100808354040283529160200191610683565b820191906000526020600020905b81548152906001019060200180831161066657829003601f168201915b5050505050905090565b6000806106986107ae565b905060006106a68286610727565b9050838110156106eb576040517f08c379a00000000000000000000000000000000000000000000000000000000081526004016106e2906113da565b60405180910390fd5b6106f882868684036107b6565b60019250505092915050565b60008061070f6107ae565b905061071c818585610a0d565b600191505092915050565b6000600160008473ffffffffffffffffffffffffffffffffffffffff1673ffffffffffffffffffffffffffffffffffffffff16815260200190815260200160002060008373ffffffffffffffffffffffffffffffffffffffff1673ffffffffffffffffffffffffffffffffffffffff16815260200190815260200160002054905092915050565b600033905090565b600073ffffffffffffffffffffffffffffffffffffffff168373ffffffffffffffffffffffffffffffffffffffff161415610826576040517f08c379a000000000000000000000000000000000000000000000000000000000815260040161081d9061146c565b60405180910390fd5b600073ffffffffffffffffffffffffffffffffffffffff168273ffffffffffffffffffffffffffffffffffffffff161415610896576040517f08c379a000000000000000000000000000000000000000000000000000000000815260040161088d906114fe565b60405180910390fd5b80600160008573ffffffffffffffffffffffffffffffffffffffff1673ffffffffffffffffffffffffffffffffffffffff16815260200190815260200160002060008473ffffffffffffffffffffffffffffffffffffffff1673ffffffffffffffffffffffffffffffffffffffff168152602001908152602001600020819055508173ffffffffffffffffffffffffffffffffffffffff168373ffffffffffffffffffffffffffffffffffffffff167f8c5be1e5ebec7d5bd14f71427d1e84f3dd0314c0f7b2291e5b200ac8c7c3b925836040516109749190610e76565b60405180910390a3505050565b600061098d8484610727565b90507fffffffffffffffffffffffffffffffffffffffffffffffffffffffffffffffff8114610a0757818110156109f9576040517f08c379a00000000000000000000000000000000000000000000000000000000081526004016109f09061156a565b60405180910390fd5b610a0684848484036107b6565b5b50505050565b600073ffffffffffffffffffffffffffffffffffffffff168373ffffffffffffffffffffffffffffffffffffffff161415610a7d576040517f08c379a0000000000000000000000000000000000000000000000000000000008152600401610a74906115fc565b60405180910390fd5b600073ffffffffffffffffffffffffffffffffffffffff168273ffffffffffffffffffffffffffffffffffffffff161415610aed576040517f08c379a0000000000000000000000000000000000000000000000000000000008152600401610ae49061168e565b60405180910390fd5b610af8838383610c8e565b60008060008573ffffffffffffffffffffffffffffffffffffffff1673ffffffffffffffffffffffffffffffffffffffff16815260200190815260200160002054905081811015610b7e576040517f08c379a0000000000000000000000000000000000000000000000000000000008152600401610b7590611720565b60405180910390fd5b8181036000808673ffffffffffffffffffffffffffffffffffffffff1673ffffffffffffffffffffffffffffffffffffffff16815260200190815260200160002081905550816000808573ffffffffffffffffffffffffffffffffffffffff1673ffffffffffffffffffffffffffffffffffffffff1681526020019081526020016000206000828254610c119190611312565b925050819055508273ffffffffffffffffffffffffffffffffffffffff168473ffffffffffffffffffffffffffffffffffffffff167fddf252ad1be2c89b69c2b068fc378daa952ba7f163c4a11628f55a4df523b3ef84604051610c759190610e76565b60405180910390a3610c88848484610c93565b50505050565b505050565b505050565b600081519050919050565b600082825260208201905092915050565b60005b83811015610cd2578082015181840152602081019050610cb7565b83811115610ce1576000848401525b50505050565b6000601f19601f8301169050919050565b6000610d0382610c98565b610d0d8185610ca3565b9350610d1d818560208601610cb4565b610d2681610ce7565b840191505092915050565b60006020820190508181036000830152610d4b8184610cf8565b905092915050565b600080fd5b600080fd5b600073ffffffffffffffffffffffffffffffffffffffff82169050919050565b6000610d8882610d5d565b9050919050565b610d9881610d7d565b8114610da357600080fd5b50565b600081359050610db581610d8f565b92915050565b6000819050919050565b610dce81610dbb565b8114610dd957600080fd5b50565b600081359050610deb81610dc5565b92915050565b60008060408385031215610e0857610e07610d53565b5b6000610e1685828601610da6565b9250506020610e2785828601610ddc565b9150509250929050565b60008115159050919050565b610e4681610e31565b82525050565b6000602082019050610e616000830184610e3d565b92915050565b610e7081610dbb565b82525050565b6000602082019050610e8b6000830184610e67565b92915050565b600080fd5b600080fd5b600080fd5b60008083601f840112610eb657610eb5610e91565b5b8235905067ffffffffffffffff811115610ed357610ed2610e96565b5b602083019150836020820283011115610eef57610eee610e9b565b5b9250929050565b60008083601f840112610f0c57610f0b610e91565b5b8235905067ffffffffffffffff811115610f2957610f28610e96565b5b602083019150836020820283011115610f4557610f44610e9b565b5b9250929050565b60008060008060408587031215610f6657610f65610d53565b5b600085013567ffffffffffffffff811115610f8457610f83610d58565b5b610f9087828801610ea0565b9450945050602085013567ffffffffffffffff811115610fb357610fb2610d58565b5b610fbf87828801610ef6565b925092505092959194509250565b600080600060608486031215610fe657610fe5610d53565b5b6000610ff486828701610da6565b935050602061100586828701610da6565b925050604061101686828701610ddc565b9150509250925092565b600060ff82169050919050565b61103681611020565b82525050565b6000602082019050611051600083018461102d565b92915050565b60006020828403121561106d5761106c610d53565b5b600061107b84828501610da6565b91505092915050565b600080600080600080606087890312156110a1576110a0610d53565b5b600087013567ffffffffffffffff8111156110bf576110be610d58565b5b6110cb89828a01610ea0565b9650965050602087013567ffffffffffffffff8111156110ee576110ed610d58565b5b6110fa89828a01610ea0565b9450945050604087013567ffffffffffffffff81111561111d5761111c610d58565b5b61112989828a01610ef6565b92509250509295509295509295565b6000806040838503121561114f5761114e610d53565b5b600061115d85828601610da6565b925050602061116e85828601610da6565b9150509250929050565b7f4e487b7100000000000000000000000000000000000000000000000000000000600052602260045260246000fd5b600060028204905060018216806111bf57607f821691505b602082108114156111d3576111d2611178565b5b50919050565b7f41697264726f707065723a20696e707574206c656e677468206d69736d61746360008201527f6800000000000000000000000000000000000000000000000000000000000000602082015250565b6000611235602183610ca3565b9150611240826111d9565b604082019050919050565b6000602082019050818103600083015261126481611228565b9050919050565b7f4e487b7100000000000000000000000000000000000000000000000000000000600052603260045260246000fd5b7f4e487b7100000000000000000000000000000000000000000000000000000000600052601160045260246000fd5b60006112d482610dbb565b91507fffffffffffffffffffffffffffffffffffffffffffffffffffffffffffffffff8214156113075761130661129a565b5b600182019050919050565b600061131d82610dbb565b915061132883610dbb565b9250827fffffffffffffffffffffffffffffffffffffffffffffffffffffffffffffffff0382111561135d5761135c61129a565b5b828201905092915050565b7f45524332303a2064656372656173656420616c6c6f77616e63652062656c6f7760008201527f207a65726f000000000000000000000000000000000000000000000000000000602082015250565b60006113c4602583610ca3565b91506113cf82611368565b604082019050919050565b600060208201905081810360008301526113f3816113b7565b9050919050565b7f45524332303a20617070726f76652066726f6d20746865207a65726f2061646460008201527f7265737300000000000000000000000000000000000000000000000000000000602082015250565b6000611456602483610ca3565b9150611461826113fa565b604082019050919050565b6000602082019050818103600083015261148581611449565b9050919050565b7f45524332303a20617070726f766520746f20746865207a65726f20616464726560008201527f7373000000000000000000000000000000000000000000000000000000000000602082015250565b60006114e8602283610ca3565b91506114f38261148c565b604082019050919050565b60006020820190508181036000830152611517816114db565b9050919050565b7f45524332303a20696e73756666696369656e7420616c6c6f77616e6365000000600082015250565b6000611554601d83610ca3565b915061155f8261151e565b602082019050919050565b6000602082019050818103600083015261158381611547565b9050919050565b7f45524332303a207472616e736665722066726f6d20746865207a65726f20616460008201527f6472657373000000000000000000000000000000000000000000000000000000602082015250565b60006115e6602583610ca3565b91506115f18261158a565b604082019050919050565b60006020820190508181036000830152611615816115d9565b9050919050565b7f45524332303a207472616e7366657220746f20746865207a65726f206164647260008201527f6573730000000000000000000000000000000000000000000000000000000000602082015250565b6000611678602383610ca3565b91506116838261161c565b604082019050919050565b600060208201905081810360008301526116a78161166b565b9050919050565b7f45524332303a207472616e7366657220616d6f756e742065786365656473206260008201527f616c616e63650000000000000000000000000000000000000000000000000000602082015250565b600061170a602683610ca3565b9150611715826116ae565b604082019050919050565b60006020820190508181036000830152611739816116fd565b905091905056fea26469706673582212205f473226030654b3b027e591fe96dc3ccc3f9f7c9e454af92825105a6d95f31664736f6c63430008090033",
  "linkReferences": {},
  "deployedLinkReferences": {}
}